{
  "_format": "hh-sol-artifact-1",
  "contractName": "WriteOnce",
  "sourceName": "contracts/WriteOnce.sol",
  "abi": [
    {
      "inputs": [],
      "name": "SALT",
      "outputs": [
        {
          "internalType": "bytes32",
          "name": "",
          "type": "bytes32"
        }
      ],
      "stateMutability": "view",
      "type": "function"
    },
    {
      "inputs": [],
      "name": "SINGLETON_FACTORY",
      "outputs": [
        {
          "internalType": "address",
          "name": "",
          "type": "address"
        }
      ],
      "stateMutability": "view",
      "type": "function"
    }
  ],
  "bytecode": "0x60c0610034600b8282823980515f1a60731461002857634e487b7160e01b5f525f60045260245ffd5b305f52607381538281f3fe7300000000000000000000000000000000000000003014608060405260043610603c575f3560e01c8063ba9a91a5146040578063cf8a37af146059575b5f80fd5b60465f81565b6040519081526020015b60405180910390f35b607373ce0042b868300000d44a59004da54a005ffdcf9f81565b6040516001600160a01b039091168152602001605056fea2646970667358221220b64b086e93322bd50175a3915a0ba3375242c29919136983856c456ee383e90664736f6c63430008150033",
  "linkReferences": {},
  "deployedLinkReferences": {}
}